Standard Header

Message Body

Standard Trailer

8=FIX.4.4|9=130|35=D|34=3|49=YOUR_COMP_ID|56=BROKER_COMP_ID|52=20260616-09:59:00.000|11=CL_ORD_001|21=1|55=AAPL|54=1|60=20260616-09:59:00.000|38=10|40=1|10=190|

// Example Logged-in Request (Raw representation)
8=FIX.4.4|9=75|35=A|34=1|49=YOUR_COMP_ID|56=BROKER_COMP_ID|52=20260616-09:58:00.000|98=0|108=30|10=114|

// The Request (Sending out)
8=FIX.4.4|9=145|35=V|34=2|49=YOUR_COMP_ID|56=BROKER_COMP_ID|52=20260616-09:58:05.000|262=REQ_101|263=1|264=0|267=2|269=0|269=1|146=1|55=USD/VND|10=220|


// The Response (Receiving back)
8=FIX.4.4|9=160|35=W|34=2|49=BROKER_COMP_ID|56=YOUR_COMP_ID|52=20260616-09:58:05.100|262=REQ_101|55=USD/VND|268=2|269=0|270=25450.00|271=100000|269=1|270=25460.00|271=150000|10=088|

// Sending Buy and Sell Requests
// Example: Buying AAPL Stock (Market Order):
8=FIX.4.4|9=130|35=D|34=3|49=YOUR_COMP_ID|56=BROKER_COMP_ID|52=20260616-09:59:00.000|11=CL_ORD_001|21=1|55=AAPL|54=1|60=20260616-09:59:00.000|38=10|40=1|10=190|

// Selling USD/VND (Limit Order)
8=FIX.4.4|9=142|35=D|34=4|49=YOUR_COMP_ID|56=BROKER_COMP_ID|52=20260616-09:59:15.000|11=CL_ORD_002|21=1|55=USD/VND|54=2|60=20260616-09:59:15.000|38=50000|40=2|44=25455.00|10=142|
